:1018000025C0FECFFDCFFCCFFBCFFACFF9CFF8CF6D
:10181000F7CFF6CFF5CFF4CFF3CFF2CFF1CFF0CFB4
:10182000EFCFEECFEDCF1027E80364000A000100F0
:10183000001000011000010001002D4E414E004932
:101840004E4600000100600138180000F894EE27B1
:10185000ECBBF1E0FBBFF2E0FBBFE5BF8DE0A2E037
:10186000BB27ED938A95E9F780E094E0A0E6ED933D
:101870000197E9F7E4E4F8E185919591009761F02B
:10188000A591B59105901590BF01F00105900D92BD
:101890000197E1F7FB01F0CFEFE5EDBFE4E0EEBF2C
:1018A000C0E6D1E00CC0E0E0E8BBE8E0E7BB0895AB
:1018B000E0E0E2BDEEE63ED0E9B7E9BF0895E8E03A
:1018C000E7BBE0E0E8BBE4BBE5BBE1BBE2BBE3BFF9
:1018D000E2BFEFBDEEBDEDBDECBDE7BDE6BDEBBDCE
:1018E000EABDE9BDE8BDE2BD25D0E0E0E9BFE5BF66
:1018F000EAB9E0E8E8B9E0E0E0BFE6B9EDB9E6BF93
:10190000D2DFD6DF10E0103039F4E3B5EF5FE3BD8E
:10191000E3B5EF3F08F011E0113039F4E3B5E150E1
:10192000E3BDE3B5E13008F410E0A3E0B0E007D098
:10193000EACFFFCFE5BDE0E0E4BDE3BD089510963A
:1019400031F08AE58A95F1F7A8951197D1F70895B6
:00000001FF
