:0418000019C0F3C058
:1018040013C1FCCFFBCFFACFF9CFF8CFF7CFF6CF88
:10181400F5CFF4CFF3CFF2CFF1CFF0CFEFCFEECFC0
:10182400EDCF0000000000000600040026180000B0
:10183400F894EE27ECBBF1E0FBBFF2E0FBBFE5BFA1
:101844008DE0A2E0BB27ED938A95E9F780E094E070
:10185400A0E6ED930197E9F7ECE2F8E18591959123
:10186400009761F0A591B59105901590BF01F00125
:1018740005900D920197E1F7FB01F0CFEFE5EDBF85
:10188400E4E0EEBFC0E6D1E09EC0E8EFE7BBE0E0F5
:10189400E8BBE8E0E4BBE0E0E5BBE3EFE1BBE0E0AC
:1018A400E2BBE3BFE2BFEFBDEEBDEDBDECBDE7BD06
:1018B400E6BDEBBDEABDE9BDE8BDE7D0E0E0E9BFC8
:1018C400EBB7E06CEBBFE6E0E5BFE0E0EABFEAB906
:1018D400E0E8E8B9E0E0E0BFE6B9EDB9E6BF0895B5
:1018E400D4D00895BA93AA9309D100E010E020E07F
:1018F40030E0EE81FF81EC81FD81AE81BF81EA178A
:10190400FB07F4F0E3B3E0951E2EEE81A1E0B0E016
:10191400ECD0A12DB0E0EA23FB23309759F0BBD0E3
:10192400E129E2BB0E811F812F5F3F4FB4D0E095C8
:10193400E121E2BBEE81FF813196EE83FF83DBCFB1
:10194400E1E0F0E0E217F30711F4F80104C0949A1F
:101954009498EFEFF0E0D7D028960895552071F4CD
:10196400E6E6E3BDECE6E5BDE3B5EF3F21F0E3B524
:10197400EF5F96D0F9CFE1E05E2E0CC0EFEFE3BD50
:10198400ECE6E5BDE3B5E63621F0E3B5E15088D0F9
:10199400F9CF5524E0E0E5BDE3BD552011F0C39A2D
:1019A40001C0C3980895AA93E881E03011F0C49A65
:1019B40001C0C498D3DF442019F4E1E04E2E01C0E5
:1019C400442421960895F89460DF8ADF78949C9BE0
:1019D40007C0C79A99248824C3984424552401C075
:1019E400C798F5CFFFCF60D0E9F0E2E0F0E0FA93DA
:1019F400EA93A3E0B0E076DFE230A0E0FA0739F43E
:101A0400C59A44245524E1E09E2EC3980AC0E330CD
:101A1400A0E0FA0731F4C69A44245524E1E08E2E5E
:101A2400C39801C024C023C03FD041F4E0E0F0E0FB
:101A3400FA93EA93A1E0B0E055DF3F01F301309758
:101A440049F49920A1F4979A8824C698A1E0ABDFC1
:101A540097980DC0E130A0E0FA0739F4882039F4F2
:101A64009924C598A0E09FDF02C0969A9698E991C0
:101A7400EFBFF991E991B991A991999189917991DE
:101A84006991F990199009901895E0E0E2BDE5BDDF
:101A9400E4BDE3BD089512B2EE81A1E01ED0089525
:101AA400E3BDA7E0B0E00FC00A921A92FA926A93DB
:101AB4007A938A939A93AA93BA93EA93FA93EFB791
:101AC400EA9344200895109639F08AEF90E0019744
:101AD400F1F7A8951197C9F70895EE230E2EEA2F72
:101AE40019F0EE0F0A94E9F70895EE230E2EFD0186
:101AF40021F0EE0FFF1F0A94E1F708953A932A9319
:101B04001A930A9308953B812A81198108810895C3
:00000001FF
