:0618000019C0ECC00FC18D
:10180600FCCFFBCFFACFF9CFF8CFF7CFF6CFF5CF96
:10181600F4CFF3CFF2CFF1CFF0CFEFCFEECFEDCFC6
:101826000000000000000600040026180000F894DE
:10183600EE27ECBBF1E0FBBFF2E0FBBFE5BF8DE0BE
:10184600A2E0BB27ED938A95E9F780E094E0A0E655
:10185600ED930197E9F7ECE2F8E185919591009710
:1018660061F0A591B59105901590BF01F001059025
:101876000D920197E1F7FB01F0CFEFE5EDBFE4E054
:10188600EEBFC0E6D1E0A1C0E8E1E7BBE0E0E8BB1F
:10189600E8E0E4BBE0E0E5BBE3EFE1BBE0E0E2BBB0
:1018A600E3BFE2BFEFBDEEBDEDBDECBDE7BDE6BDFE
:1018B600EBBDEABDE9BDE8BDE1D0E0E0E9BFEBB7CD
:1018C600E06CEBBFE6E0E5BFE0E0EABFEAB9E0E8DE
:1018D600E8B9E0E0E0BFE6B9EDB9E6BF0895CED0DD
:1018E6000895BA93AA9302D100E010E020E030E018
:1018F600A2E3B0E0E0D0EE81FF81EC81FD81AE8114
:10190600BF81EA17FB07F4F0E3B3E0951E2EEE81E4
:10191600A1E0B0E0E2D0A12DB0E0EA23FB233097AE
:1019260059F0B2D0E129E2BB0E811F812F5F3F4FF4
:10193600ABD0E095E121E2BBEE81FF813196EE83EB
:10194600FF83DBCFE1E0F0E0E217F30711F4F801E3
:1019560004C0949A9498EFEFF0E0CDD028960895BD
:10196600552071F4E0E0E3BDECE6E5BDE3B5EF3FFD
:1019760021F0E3B5EF5F8DD0F9CFE1E05E2E0CC02C
:10198600EFEFE3BDECE6E5BDE3B5E03021F0E3B50E
:10199600E1507FD0F9CF5524E0E0E5BDE3BD552009
:1019A60011F0C39A01C0C3980895AA93E881E03064
:1019B60011F0C49A01C0C498D3DF442019F4E1E0C1
:1019C6004E2E01C0442421960895F8945DDF87DFEA
:1019D6007894FFCFFFCF61D0979A4420E9F0E2E0F8
:1019E600F0E0FA93EA93A3E0B0E07BDFE230A0E018
:1019F600FA0741F4959A44245524E1E09E2EC398B3
:101A0600959809C0E330A0E0FA0729F44424552448
:101A1600E1E08E2EC39801C023C0979821C03DD027
:101A2600969A442049F4919AE0E0F0E0FA93EA931A
:101A3600A1E0B0E056DF3F01F301309731F4992081
:101A460079F48824A1E0B1DF09C0E130A0E0FA070B
:101A560029F4882029F49924A0E0A7DF9698919884
:101A6600E991EFBFF991E991B991A991999189917C
:101A760079916991F990199009901895E0E0E2BD85
:101A8600E5BDE4BDE3BD089512B2EE81A1E01DD02F
:101A96000895E3BDA3E0B0E00EC00A921A92FA924E
:101AA6006A937A938A939A93AA93BA93EA93FA9348
:101AB600EFB7EA930895109639F08AEF90E0019710
:101AC600F1F7A8951197C9F70895EE230E2EEA2F80
:101AD60019F0EE0F0A94E9F70895EE230E2EFD0194
:101AE60021F0EE0FFF1F0A94E1F708953A932A9327
:101AF6001A930A9308953B812A81198108810895D2
:00000001FF
