:0618000012C0FECFFDCF77
:10180600FCCFFBCFFACFF9CFF8CFF7CFF6CFF5CF96
:10181600F4CFF3CFF2CFF1CFF0CFEFCFEECFEDCFC6
:10182600F894EE27ECBBF1E0FBBFF2E0FBBFE5BFAF
:101836008DE0A2E0BB27ED938A95E9F780E094E07E
:10184600A0E6ED930197E9F7EFE5EDBFE4E0EEBF23
:10185600C0E6D1E027C0E8E0E7BBE0E0E8BBE4BBD8
:10186600E5BBE1BBE2BBE3BFE2BFEFBDEEBDEDBD55
:10187600ECBDE7BDE6BDEBBDEABDE9BDE8BDE2BD39
:1018860030D0E0E0E9BFE5BFEAB9E0E8E8B9E0E07A
:10189600E0BFE6B9EDB9E6BF0895E0E0E2BDEAE6ED
:1018A60020D0089501E010E0F894D5DFF6DF7894B3
:1018B600002E012A19F0E3B5EF5F02C0E3B5E1504F
:1018C600E3BDA5E0B0E012D0E3B5EF3F19F400E0C8
:1018D60010E005C0E3B5E03011F401E010E0E8CF18
:1018E600FFCFE5BDE0E0E4BDE3BD0895109639F015
:1018F6008AEF90E00197F1F7A8951197C9F7089537
:00000001FF
