:0818000018C0E1C0FFC0FCCFDD
:10180800FBCFFACFF9CFF8CFF7CFF6CFF5CFF4CF9C
:10181800F3CFF2CFF1CFF0CFEFCFEECFEDCF000087
:1018280000000300040026180000F894EE27ECBB23
:10183800F1E0FBBFF2E0FBBFE5BF8DE0A2E0BB2714
:10184800ED938A95E9F780E094E0A0E6ED9301979F
:10185800E9F7EAE2F8E185919591009761F0A591A1
:10186800B59105901590BF01F00105900D92019773
:10187800E1F7FB01F0CFEFE5EDBFE4E0EEBFC0E636
:10188800D1E097C0E8E1E7BBE0E0E8BBE8E0E4BB13
:10189800E0E0E5BBE3EFE1BBE0E0E2BBE3BFE2BFD2
:1018A800EFBDEEBDEDBDECBDE7BDE6BDEBBDEABDF0
:1018B800E9BDE8BDD0D0E0E0E9BFE4E0E5BFEBB7C3
:1018C800E06CEBBFE6E0E5BFE0E0EABFEAB9E0E8DC
:1018D800E8B9E0E0E0BFE6B9EDB9E6BF0895BBD0EE
:1018E8000895BA93AA93E2D000E010E020E030E037
:1018F800EE81FF81EC81FD81AE81BF81EA17FB0794
:10190800BCF0E3B3E0951E2EEE81A1E0B0E0C5D0B7
:10191800A12DB0E0EA23FB23309721F00E811F812F
:101928002F5F3F4FEE81FF813196EE83FF83E2CF39
:10193800E1E0F0E0E217F30711F4F80102C0EFEF7D
:10194800F0E0B9D028960895552071F4E0E0E3BDA1
:10195800ECE6E5BDE3B5EF3F21F0E3B5EF5F81D0FD
:10196800F9CFE1E05E2E0CC0EFEFE3BDECE6E5BD9C
:10197800E3B5E03021F0E3B5E15073D0F9CF552459
:10198800E0E0E5BDE3BD552011F0C39A01C0C3985E
:101998000895AA93E881E03011F0C39A01C0C39872
:1019A800D3DF442019F4E1E04E2E01C044242196EF
:1019B8000895F89467DF93DF7894FFCFFFCF55D071
:1019C800979A4420C1F0E2E0F0E0FA93EA93A3E0AA
:1019D800B0E087DFE230A0E0FA0739F4959A4424B2
:1019E8005524E1E06E2EC39805C0E330A0E0FA0765
:1019F80009F0969A01C021C097981FC036D066207A
:101A080011F066241AC0442061F4E0E0F0E0FA9393
:101A1800EA93A1E0B0E065DFEF2BE1E009F4E0E054
:101A28007E2EE72DF0E0309711F4A1E005C0E130FB
:101A3800A0E0FA0711F4A0E0ACDFE991EFBFF9915B
:101A4800E991B991A9919991899179916991F990BF
:101A5800199009901895E0E0E2BDE5BDE4BDE3BD4D
:101A68000895E3BDA3E0B0E00EC00A921A92FA927C
:101A78006A937A938A939A93AA93BA93EA93FA9376
:101A8800EFB7EA930895109639F08AEF90E001973E
:101A9800F1F7A8951197C9F70895EE230E2EFD01C9
:101AA80021F0EE0FFF1F0A94E1F708953A932A9365
:101AB8001A930A9308953B812A8119810881089510
:00000001FF
