:0218000012C014
:10180200FECF86C0FCCFFBCFFACFF9CFF8CFF7CF10
:10181200F6CFF5CFF4CFF3CFF2CFF1CFF0CFEFCFBA
:10182200EECFEDCFF894EE27ECBBF1E0FBBFF2E098
:10183200FBBFE5BF8DE0A2E0BB27ED938A95E9F7F8
:1018420080E094E0A0E6ED930197E9F7EFE5EDBFC4
:10185200E4E0EEBFC0E6D1E03CC0E8E0E7BBE0E098
:10186200E8BBE4BBE5BBE0E8E1BBE2BBE0E0E3BF31
:10187200E2BFEFBDEEBDEDBDECBDE7BDE6BDEBBD2C
:10188200EABDE9BDE8BDE2BD5FD0E0E0E9BFE8E066
:10189200E5BFEBB7E068EBBFE8E0E5BFE0E8EABF31
:1018A200E0E0EAB9E0E8E8B9E0E0E0BFE6B9EDB9C6
:1018B200E6BF0895E0E0E2BDEAE646D00895E3B36C
:1018C200E095E27029F045D0AAE0B0E047D041D0DF
:1018D200089501E010E0F894C0DFECDF7894002E68
:1018E200012A19F0E3B5EF5F02C0E3B5E150E3BDB1
:1018F20087EA8A95F1F7E3B5EF3F19F400E010E0CB
:1019020005C0E3B5E03011F401E010E0E8CFFFCF0D
:101912000A921A92FA926A937A938A939A93AA9360
:10192200BA93EA93FA93EFB7EA93C9DFE991EFBF6B
:10193200F991E991B991A9919991899179916991D5
:10194200F990199009901895E5BDE0E0E4BDE3BD7A
:101952000895E2B3A0E8EA27E2BB0895109639F0B1
:101962008AEF90E00197F1F7A8951197C9F70895CA
:00000001FF
