:0618000019C016C13CC135
:10180600FCCFFBCFFACFF9CFF8CFF7CFF6CFF5CF96
:10181600F4CFF3CFF2CFF1CFF0CFEFCFEECFEDCFC6
:101826000000000000000600040026180000F894DE
:10183600EE27ECBBF1E0FBBFF2E0FBBFE5BF8DE0BE
:10184600A2E0BB27ED938A95E9F780E094E0A0E655
:10185600ED930197E9F7ECE2F8E185919591009710
:1018660061F0A591B59105901590BF01F001059025
:101876000D920197E1F7FB01F0CFEFE5EDBFE4E054
:10188600EEBFC0E6D1E0BEC0EBEFE7BBE0E0E8BBF1
:10189600E8E0E4BBE0E0E5BBE3EFE1BBE0E0E2BBB0
:1018A600E3BFE2BFEFBDEEBDEDBDECBDE7BDE6BDFE
:1018B600EBBDEABDE9BDE8BD10D1E0E0E9BFEBB79D
:1018C600E06CEBBFE6E0E5BFE0E0EABFEAB9E0E8DE
:1018D600E8B9E0E0E0BFE6B9EDB9E6BF0895FDD0AE
:1018E6000895AA93E981F0E0E537A0E0FA0749F404
:1018F600E881E03011F0C09A03C0E8B3EC7FE8BBA2
:101906000CC0E436A0E0FA0741F4E881E03011F0BB
:10191600C19A03C0E8B3EC7FE8BB22960895BA9358
:10192600AA931CD100E010E020E030E0EE81FF81B8
:10193600EC81FD81AE81BF81EA17FB07F4F0E3B3CA
:10194600E0951E2EEE81A1E0B0E0FFD0A12DB0E023
:10195600EA23FB23309759F0C6D0E129E2BB0E817A
:101966001F812F5F3F4FBFD0E095E121E2BBEE81A3
:10197600FF813196EE83FF83DBCFE1E0F0E0E217F3
:10198600F30711F4F80104C0949A9498EFEFF0E08D
:10199600EAD028960895AA93552071F4E6E6A8D0D1
:1019A600A1E09FDFE3B5EF3F21F0E3B5EF5FA6D0FF
:1019B600F9CFE1E05E2E0BC0EFEF9AD0A3D0E3B5EE
:1019C600E63621F0E3B5E15099D0F9CF5524E0E0B1
:1019D600E5BDE3BD552011F0C39A01C0C39810C000
:1019E600AA93E881E03019F0C49AA5E702C0C4982A
:1019F600A4E6D1DF442019F4E1E04E2E01C04424D0
:101A060021960895F89440DF6ADF78949C9B0AC07B
:101A1600C79A99248824C39844245524E5E7EA9371
:101A260071D001C0C798F2CFFFCF6ED019F1E2E0B6
:101A3600F0E0FA93EA93A3E0B0E071DFE230A0E0D1
:101A4600FA0751F4C59A44245524E1E09E2EC39822
:101A5600E5E7EA9357D00DC0E330A0E0FA0749F472
:101A6600C69A44245524E1E08E2EC398E4E6EA9310
:101A760049D001C024C023C047D041F4E0E0F0E0E3
:101A8600FA93EA93A1E0B0E04ADF3F01F301309711
:101A960049F49920A1F4979A8824C698A1E0A0DF7A
:101AA60097980DC0E130A0E0FA0739F4882039F4A0
:101AB6009924C598A0E094DF02C0969A9698E99179
:101AC600EFBFF991E991B991A9919991899179918C
:101AD6006991F990199009901895E0E0E2BDE5BD8D
:101AE600E4BDE3BD089512B2EE81A1E026D00895CB
:101AF600E3BDECE6E5BDE881EA930895E3BDA7E022
:101B0600B0E011C0A0E0EDCE0A921A92FA926A9362
:101B16007A938A939A93AA93BA93EA93FA93EFB72E
:101B2600EA9344200895109639F08AEF90E00197E1
:101B3600F1F7A8951197C9F70895EE230E2EEA2F0F
:101B460019F0EE0F0A94E9F70895EE230E2EFD0123
:101B560021F0EE0FFF1F0A94E1F708953A932A93B6
:101B66001A930A9308953B812A8119810881089561
:00000001FF
