:0818000012C0FECFB7C0FCCFFF
:10180800FBCFFACFF9CFF8CFF7CFF6CFF5CFF4CF9C
:10181800F3CFF2CFF1CFF0CFEFCFEECFEDCFF894FB
:10182800EE27ECBBF1E0FBBFF2E0FBBFE5BF8DE0CC
:10183800A2E0BB27ED938A95E9F780E094E0A0E663
:10184800ED930197E9F7EFE5EDBFE4E0EEBFC0E601
:10185800D1E083C0E8E1E7BBE0E0E8BBE8E0E4BB57
:10186800E0E0E5BBE3EFE1BBE0E0E2BBE3BFE2BF02
:10187800EFBDEEBDEDBDECBDE7BDE6BDEBBDEABD20
:10188800E9BDE8BDA2D0E0E0E9BFE4E0E5BFEBB721
:10189800E068EBBFE4E0E5BFE0E8EABFE0E0EAB912
:1018A800E0E8E8B9E0E0E0BFE6B9EDB9E6BF0895E1
:1018B8008CD00895A7D020E030E040E050E000E070
:1018C80010E00530E0E01E078CF4E3B3E0951E2E2F
:1018D800E02FA1E0B0E08DD0A12DB0E0EA23FB23FA
:1018E800309709F098010F5F1F4FEBCFF90191D0A6
:1018F80026960895042C052879F4E0E0E3BDECE68B
:10190800E5BDE3B5EF3F21F0E3B5EF5F64D0F9CF74
:10191800E1E0F0E02F010DC0EFEFE3BDECE6E5BD3F
:10192800E3B5E03021F0E3B5E15055D0F9CF4424D8
:101938005524E0E0E5BDE3BD042C052811F0C39A69
:1019480001C0C3980895AA93E881E03011F0C49AC1
:1019580001C0C498CFDF21960895E1E0F0E03F018F
:10196800F89478DFA5DF7894FFCFFFCF0A921A9218
:10197800FA926A937A938A939A93AA93BA93EA9378
:10198800FA93EFB7EA93E0E2E2BB94DF309729F4E9
:10199800979AA1E0D8DF979809C0E130A0E0FA074C
:1019A80029F4969AA0E0CFDF969800C09598E9911F
:1019B800EFBFF991E991B991A9919991899179919B
:1019C8006991F990199009901895E0E0E2BDE5BD9C
:1019D800E4BDE3BD0895E3BDA3E0B0E000C0109608
:1019E80039F08AEF90E00197F1F7A8951197C9F7B8
:1019F8000895EE230E2EFD0121F0EE0FFF1F0A942D
:101A0800E1F708955A934A933A932A931A930A93BB
:101A180008955D814C813B812A811981088108954F
:00000001FF
