:0218000012C014
:10180200FECFBEC0FCCFFBCFFACFF9CFF8CFF7CFD8
:10181200F6CFF5CFF4CFF3CFF2CFF1CFF0CFEFCFBA
:10182200EECFEDCFF894EE27ECBBF1E0FBBFF2E098
:10183200FBBFE5BF8DE0A2E0BB27ED938A95E9F7F8
:1018420080E094E0A0E6ED930197E9F7EFE5EDBFC4
:10185200E4E0EEBFC0E6D1E08AC0E8E0E7BBE0E04A
:10186200E8BBE8E0E4BBE0E0E5BBE3EFE1BBE0E0DE
:10187200E2BBE3BFE2BFEFBDEEBDEDBDECBDE7BD38
:10188200E6BDEBBDEABDE9BDE8BDA7D0E0E0E9BF3A
:10189200E8E0E5BFEBB7E068EBBFE8E0E5BFE0E812
:1018A200EABFE0E0EAB9E0E8E8B9E0E0E0BFE6B9C3
:1018B200EDB9E6BF089591D00895ACD020E030E0B4
:1018C20040E050E0969A00E010E00530E0E01E07AC
:1018D2009CF4E3B3E0951E2EE02FA1E0B0E091D09E
:1018E200A12DB0E0EA23FB23309719F098014F5F56
:1018F2005F4F0F5F1F4FE9CFE1E0F0E0E417F5071C
:1019020019F49698F90102C0EFEFF0E08AD026961A
:101912000895BA93AA93E881F981309779F0E0E0CB
:10192200E3BDECE6E5BDE3B5EF3F21F0E3B5EF5FE4
:101932005AD0F9CFE1E0F0E02F010DC0EFEFE3BDA7
:10194200ECE6E5BDE3B5EF3F21F0E3B5E1504BD066
:10195200F9CF44245524E0E0E5BDE3BDE881F981F7
:10196200309711F0C39A01C0AB9822960895E1E036
:10197200F0E03F01F89471DF9EDF7894FFCFFFCF54
:101982000A921A92FA926A937A938A939A93AA93F0
:10199200BA93EA93FA93EFB7EA938FDF979A309765
:1019A20029F4A1E0B0E0B5DF979808C0E130A0E0EB
:1019B200FA0719F4A0E0B0E0ACDF959A9798E991A4
:1019C200EFBFF991E991B991A99199918991799191
:1019D2006991F990199009901895E0E0E2BDE5BD92
:1019E200E4BDE3BD0895E3BDA3E0B0E000C01096FE
:1019F20039F08AEF90E00197F1F7A8951197C9F7AE
:101A02000895EE230E2EFD0121F0EE0FFF1F0A9422
:101A1200E1F708955A934A933A932A931A930A93B1
:101A220008955D814C813B812A8119810881089545
:00000001FF
