:0818000012C0FECFB4C0FCCF02
:10180800FBCFFACFF9CFF8CFF7CFF6CFF5CFF4CF9C
:10181800F3CFF2CFF1CFF0CFEFCFEECFEDCFF894FB
:10182800EE27ECBBF1E0FBBFF2E0FBBFE5BF8DE0CC
:10183800A2E0BB27ED938A95E9F780E094E0A0E663
:10184800ED930197E9F7EFE5EDBFE4E0EEBFC0E601
:10185800D1E080C0E8E0E7BBE0E0E8BBE8E0E4BB5B
:10186800E0E0E5BBE3EFE1BBE0E0E2BBE3BFE2BF02
:10187800EFBDEEBDEDBDECBDE7BDE6BDEBBDEABD20
:10188800E9BDE8BDA2D0E0E0E9BFE8E0E5BFEBB71D
:10189800E068EBBFE8E0E5BFE0E8EABFE0E0EAB90E
:1018A800E0E8E8B9E0E0E0BFE6B9EDB9E6BF0895E1
:1018B8008CD00895A7D020E030E040E050E0969A20
:1018C80000E010E00530E0E01E078CF4E3B3E0959B
:1018D8001E2EE02FA1E0B0E08CD0A12DB0E0EA23CD
:1018E800FB23309709F098010F5F1F4FEBCF9698B5
:1018F800F9018FD026960895BA93AA93E881F981C1
:10190800309779F0E0E0E3BDECE6E5BDE3B5EF3F05
:1019180021F0E3B5EF5F5FD0F9CFE1E0F0E02F0110
:101928000DC0EFEFE3BDECE6E5BDE3B5E03021F037
:10193800E3B5E15050D0F9CF44245524E0E0E5BDAB
:10194800E3BDE881F981309711F0C39A01C0C398CB
:1019580022960895E1E0F0E03F01F8947BDFA8DFEC
:101968007894FFCFFFCF0A921A92FA926A937A93E9
:101978008A939A93AA93BA93EA93FA93EFB7EA935E
:1019880099DF979A309729F4A1E0B0E0B5DF9798EE
:101998000DC0E130A0E0FA0721F4A0E0B0E0ACDF30
:1019A80004C0E230A0E0FA0709F4959A9798E99103
:1019B800EFBFF991E991B991A9919991899179919B
:1019C8006991F990199009901895E0E0E2BDE5BD9C
:1019D800E4BDE3BD0895E3BDA3E0B0E000C0109608
:1019E80039F08AEF90E00197F1F7A8951197C9F7B8
:1019F8000895EE230E2EFD0121F0EE0FFF1F0A942D
:101A0800E1F708955A934A933A932A931A930A93BB
:101A180008955D814C813B812A811981088108954F
:00000001FF
